{
  "contractName": "BatchRegistry",
  "abi": [
    {
      "inputs": [],
      "stateMutability": "nonpayable",
      "type": "constructor"
    },
    {
      "inputs": [
        {
          "internalType": "address",
          "name": "owner",
          "type": "address"
        }
      ],
      "name": "OwnableInvalidOwner",
      "type": "error"
    },
    {
      "inputs": [
        {
          "internalType": "address",
          "name": "account",
          "type": "address"
        }
      ],
      "name": "OwnableUnauthorizedAccount",
      "type": "error"
    },
    {
      "anonymous": false,
      "inputs": [
        {
          "indexed": true,
          "internalType": "bytes32",
          "name": "batchId",
          "type": "bytes32"
        },
        {
          "indexed": false,
          "internalType": "bytes32",
          "name": "root",
          "type": "bytes32"
        },
        {
          "indexed": false,
          "internalType": "uint256",
          "name": "timestamp",
          "type": "uint256"
        }
      ],
      "name": "BatchAnchored",
      "type": "event"
    },
    {
      "anonymous": false,
      "inputs": [
        {
          "indexed": true,
          "internalType": "address",
          "name": "previousOwner",
          "type": "address"
        },
        {
          "indexed": true,
          "internalType": "address",
          "name": "newOwner",
          "type": "address"
        }
      ],
      "name": "OwnershipTransferred",
      "type": "event"
    },
    {
      "inputs": [
        {
          "internalType": "bytes32",
          "name": "",
          "type": "bytes32"
        }
      ],
      "name": "batchRoots",
      "outputs": [
        {
          "internalType": "bytes32",
          "name": "",
          "type": "bytes32"
        }
      ],
      "stateMutability": "view",
      "type": "function",
      "constant": true
    },
    {
      "inputs": [],
      "name": "owner",
      "outputs": [
        {
          "internalType": "address",
          "name": "",
          "type": "address"
        }
      ],
      "stateMutability": "view",
      "type": "function",
      "constant": true
    },
    {
      "inputs": [],
      "name": "renounceOwnership",
      "outputs": [],
      "stateMutability": "nonpayable",
      "type": "function"
    },
    {
      "inputs": [
        {
          "internalType": "address",
          "name": "newOwner",
          "type": "address"
        }
      ],
      "name": "transferOwnership",
      "outputs": [],
      "stateMutability": "nonpayable",
      "type": "function"
    },
    {
      "inputs": [
        {
          "internalType": "bytes32",
          "name": "batchId",
          "type": "bytes32"
        },
        {
          "internalType": "bytes32",
          "name": "root",
          "type": "bytes32"
        }
      ],
      "name": "anchorBatch",
      "outputs": [],
      "stateMutability": "nonpayable",
      "type": "function"
    },
    {
      "inputs": [
        {
          "internalType": "bytes32",
          "name": "batchId",
          "type": "bytes32"
        }
      ],
      "name": "isAnchored",
      "outputs": [
        {
          "internalType": "bool",
          "name": "",
          "type": "bool"
        }
      ],
      "stateMutability": "view",
      "type": "function",
      "constant": true
    },
    {
      "inputs": [
        {
          "internalType": "bytes32",
          "name": "batchId",
          "type": "bytes32"
        },
        {
          "internalType": "string",
          "name": "serial",
          "type": "string"
        },
        {
          "internalType": "bytes32[]",
          "name": "proof",
          "type": "bytes32[]"
        }
      ],
      "name": "verifyPart",
      "outputs": [
        {
          "internalType": "bool",
          "name": "",
          "type": "bool"
        }
      ],
      "stateMutability": "view",
      "type": "function",
      "constant": true
    }
  ],
  "bytecode": "0x608060405234801561000f575f80fd5b50338061003557604051631e4fbdf760e01b81525f600482015260240160405180910390fd5b61003e81610044565b50610093565b5f80546001600160a01b038381166001600160a01b0319831681178455604051919092169283917f8be0079c531659141344cd1fd0a4f28419497f9722a3daafe3b4186f6b6457e09190a35050565b610524806100a05f395ff3fe608060405234801561000f575f80fd5b506004361061007a575f3560e01c80638da5cb5b116100585780638da5cb5b146100d15780639ea168af146100eb578063e7a315a4146100fe578063f2fde38b1461012b575f80fd5b8063215d74a01461007e5780634f0b580114610093578063715018a6146100c9575b5f80fd5b61009161008c366004610381565b61013e565b005b6100b46100a13660046103a1565b5f90815260016020526040902054151590565b60405190151581526020015b60405180910390f35b61009161019f565b5f546040516001600160a01b0390911681526020016100c0565b6100b46100f93660046103b8565b6101b2565b61011d61010c3660046103a1565b60016020525f908152604090205481565b6040519081526020016100c0565b610091610139366004610481565b610234565b610146610276565b5f82815260016020526040908190208290555182907f8a9f24ba2b987a61ee1795c8550f6bd177ff96ca5fe1528dbe3bcbbf6a3b9213906101939084904290918252602082015260400190565b60405180910390a25050565b6101a7610276565b6101b05f6102a2565b565b5f8085856040516020016101c79291906104a7565b6040516020818303038152906040528051906020012090506102298484808060200260200160405190810160405280939291908181526020018383602002808284375f9201829052508c81526001602052604090205492508591506102f19050565b979650505050505050565b61023c610276565b6001600160a01b03811661026a57604051631e4fbdf760e01b81525f60048201526024015b60405180910390fd5b610273816102a2565b50565b5f546001600160a01b031633146101b05760405163118cdaa760e01b8152336004820152602401610261565b5f80546001600160a01b038381166001600160a01b0319831681178455604051919092169283917f8be0079c531659141344cd1fd0a4f28419497f9722a3daafe3b4186f6b6457e09190a35050565b5f826102fd8584610306565b14949350505050565b5f81815b845181101561034a5761033682868381518110610329576103296104b6565b6020026020010151610352565b915080610342816104ca565b91505061030a565b509392505050565b5f81831061036c575f82815260208490526040902061037a565b5f8381526020839052604090205b9392505050565b5f8060408385031215610392575f80fd5b50508035926020909101359150565b5f602082840312156103b1575f80fd5b5035919050565b5f805f805f606086880312156103cc575f80fd5b85359450602086013567ffffffffffffffff808211156103ea575f80fd5b818801915088601f8301126103fd575f80fd5b81358181111561040b575f80fd5b89602082850101111561041c575f80fd5b602083019650809550506040880135915080821115610439575f80fd5b818801915088601f83011261044c575f80fd5b81358181111561045a575f80fd5b8960208260051b850101111561046e575f80fd5b9699959850939650602001949392505050565b5f60208284031215610491575f80fd5b81356001600160a01b038116811461037a575f80fd5b818382375f9101908152919050565b634e487b7160e01b5f52603260045260245ffd5b5f600182016104e757634e487b7160e01b5f52601160045260245ffd5b506001019056fea26469706673582212207c85cecdc57ea6ed6ee41eb3b87d8d5dde05f8a0fa36299c772ba030a61d3cb764736f6c63430008150033",
  "immutableReferences": {},
  "source": "// SPDX-License-Identifier: MIT\npragma solidity ^0.8.21;\n\nimport \"@openzeppelin/contracts/access/Ownable.sol\";\nimport \"@openzeppelin/contracts/utils/cryptography/MerkleProof.sol\";\n\n/// @title BatchRegistry - anchors batch Merkle roots and verifies parts\ncontract BatchRegistry is Ownable {\n    mapping(bytes32 => bytes32) public batchRoots; // batchId => merkleRoot\n\n    event BatchAnchored(bytes32 indexed batchId, bytes32 root, uint256 timestamp);\n\n    constructor() Ownable(msg.sender) {}\n\n    function anchorBatch(bytes32 batchId, bytes32 root) external onlyOwner {\n        batchRoots[batchId] = root;\n        emit BatchAnchored(batchId, root, block.timestamp);\n    }\n\n    function isAnchored(bytes32 batchId) external view returns (bool) {\n        return batchRoots[batchId] != bytes32(0);\n    }\n\n    function verifyPart(bytes32 batchId, string calldata serial, bytes32[] calldata proof)\n        external\n        view\n        returns (bool)\n    {\n        bytes32 leaf = keccak256(abi.encodePacked(serial));\n        return MerkleProof.verify(proof, batchRoots[batchId], leaf);\n    }\n}\n",
  "sourcePath": "/home/user-01/Stark/TechMahindra/TechMahindra/DAO-MT/contracts/BatchRegistry.sol",
  "compiler": {
    "name": "solc",
    "version": "0.8.21+commit.d9974bed.Emscripten.clang"
  },
  "schemaVersion": "3.4.16",
  "updatedAt": "2026-06-26T06:19:28.973Z",
  "networkType": "ethereum",
  "devdoc": {
    "errors": {
      "OwnableInvalidOwner(address)": [
        {
          "details": "The owner is not a valid owner account. (eg. `address(0)`)"
        }
      ],
      "OwnableUnauthorizedAccount(address)": [
        {
          "details": "The caller account is not authorized to perform an operation."
        }
      ]
    },
    "kind": "dev",
    "methods": {
      "owner()": {
        "details": "Returns the address of the current owner."
      },
      "renounceOwnership()": {
        "details": "Leaves the contract without owner. It will not be possible to call `onlyOwner` functions. Can only be called by the current owner. NOTE: Renouncing ownership will leave the contract without an owner, thereby disabling any functionality that is only available to the owner."
      },
      "transferOwnership(address)": {
        "details": "Transfers ownership of the contract to a new account (`newOwner`). Can only be called by the current owner."
      }
    },
    "title": "BatchRegistry - anchors batch Merkle roots and verifies parts",
    "version": 1
  },
  "userdoc": {
    "kind": "user",
    "methods": {},
    "version": 1
  }
}