{
  "contractName": "DealerRegistry",
  "abi": [
    {
      "inputs": [],
      "stateMutability": "nonpayable",
      "type": "constructor"
    },
    {
      "inputs": [
        {
          "internalType": "address",
          "name": "owner",
          "type": "address"
        }
      ],
      "name": "OwnableInvalidOwner",
      "type": "error"
    },
    {
      "inputs": [
        {
          "internalType": "address",
          "name": "account",
          "type": "address"
        }
      ],
      "name": "OwnableUnauthorizedAccount",
      "type": "error"
    },
    {
      "anonymous": false,
      "inputs": [
        {
          "indexed": true,
          "internalType": "bytes32",
          "name": "dealerId",
          "type": "bytes32"
        },
        {
          "indexed": false,
          "internalType": "enum DealerRegistry.Status",
          "name": "status",
          "type": "uint8"
        },
        {
          "indexed": false,
          "internalType": "uint256",
          "name": "timestamp",
          "type": "uint256"
        }
      ],
      "name": "DealerStatusChanged",
      "type": "event"
    },
    {
      "anonymous": false,
      "inputs": [
        {
          "indexed": true,
          "internalType": "address",
          "name": "previousOwner",
          "type": "address"
        },
        {
          "indexed": true,
          "internalType": "address",
          "name": "newOwner",
          "type": "address"
        }
      ],
      "name": "OwnershipTransferred",
      "type": "event"
    },
    {
      "inputs": [],
      "name": "dao",
      "outputs": [
        {
          "internalType": "address",
          "name": "",
          "type": "address"
        }
      ],
      "stateMutability": "view",
      "type": "function",
      "constant": true
    },
    {
      "inputs": [
        {
          "internalType": "bytes32",
          "name": "",
          "type": "bytes32"
        }
      ],
      "name": "dealerStatus",
      "outputs": [
        {
          "internalType": "enum DealerRegistry.Status",
          "name": "",
          "type": "uint8"
        }
      ],
      "stateMutability": "view",
      "type": "function",
      "constant": true
    },
    {
      "inputs": [],
      "name": "owner",
      "outputs": [
        {
          "internalType": "address",
          "name": "",
          "type": "address"
        }
      ],
      "stateMutability": "view",
      "type": "function",
      "constant": true
    },
    {
      "inputs": [],
      "name": "renounceOwnership",
      "outputs": [],
      "stateMutability": "nonpayable",
      "type": "function"
    },
    {
      "inputs": [
        {
          "internalType": "address",
          "name": "newOwner",
          "type": "address"
        }
      ],
      "name": "transferOwnership",
      "outputs": [],
      "stateMutability": "nonpayable",
      "type": "function"
    },
    {
      "inputs": [
        {
          "internalType": "address",
          "name": "_dao",
          "type": "address"
        }
      ],
      "name": "setDao",
      "outputs": [],
      "stateMutability": "nonpayable",
      "type": "function"
    },
    {
      "inputs": [
        {
          "internalType": "bytes32",
          "name": "dealerId",
          "type": "bytes32"
        }
      ],
      "name": "registerDealer",
      "outputs": [],
      "stateMutability": "nonpayable",
      "type": "function"
    },
    {
      "inputs": [
        {
          "internalType": "bytes32",
          "name": "dealerId",
          "type": "bytes32"
        },
        {
          "internalType": "enum DealerRegistry.Status",
          "name": "s",
          "type": "uint8"
        }
      ],
      "name": "setStatus",
      "outputs": [],
      "stateMutability": "nonpayable",
      "type": "function"
    }
  ],
  "bytecode": "0x608060405234801561000f575f80fd5b50338061003557604051631e4fbdf760e01b81525f600482015260240160405180910390fd5b61003e81610044565b50610093565b5f80546001600160a01b038381166001600160a01b0319831681178455604051919092169283917f8be0079c531659141344cd1fd0a4f28419497f9722a3daafe3b4186f6b6457e09190a35050565b610488806100a05f395ff3fe608060405234801561000f575f80fd5b5060043610610085575f3560e01c80638da5cb5b116100585780638da5cb5b146101095780638de654ba14610119578063b2719e5d1461012c578063f2fde38b1461013f575f80fd5b80630478f0ff146100895780634162169f146100c15780636637b882146100ec578063715018a614610101575b5f80fd5b6100ab61009736600461037a565b60016020525f908152604090205460ff1681565b6040516100b891906103c5565b60405180910390f35b6002546100d4906001600160a01b031681565b6040516001600160a01b0390911681526020016100b8565b6100ff6100fa3660046103d9565b610152565b005b6100ff61017c565b5f546001600160a01b03166100d4565b6100ff610127366004610406565b61018f565b6100ff61013a36600461037a565b610262565b6100ff61014d3660046103d9565b6102c2565b61015a6102ff565b600280546001600160a01b0319166001600160a01b0392909216919091179055565b6101846102ff565b61018d5f61032b565b565b6002546001600160a01b03163314806101b157505f546001600160a01b031633145b6101f25760405162461bcd60e51b815260206004820152600d60248201526c3737ba103230b797b7bbb732b960991b60448201526064015b60405180910390fd5b5f8281526001602081905260409091208054839260ff199091169083600581111561021f5761021f610391565b0217905550817f761f6d7affb36855f97d664f595150e44f4874e94a702709a21193f809e15a678242604051610256929190610437565b60405180910390a25050565b61026a6102ff565b5f81815260016020819052604091829020805460ff191682179055905182917f761f6d7affb36855f97d664f595150e44f4874e94a702709a21193f809e15a67916102b791904290610437565b60405180910390a250565b6102ca6102ff565b6001600160a01b0381166102f357604051631e4fbdf760e01b81525f60048201526024016101e9565b6102fc8161032b565b50565b5f546001600160a01b0316331461018d5760405163118cdaa760e01b81523360048201526024016101e9565b5f80546001600160a01b038381166001600160a01b0319831681178455604051919092169283917f8be0079c531659141344cd1fd0a4f28419497f9722a3daafe3b4186f6b6457e09190a35050565b5f6020828403121561038a575f80fd5b5035919050565b634e487b7160e01b5f52602160045260245ffd5b600681106103c157634e487b7160e01b5f52602160045260245ffd5b9052565b602081016103d382846103a5565b92915050565b5f602082840312156103e9575f80fd5b81356001600160a01b03811681146103ff575f80fd5b9392505050565b5f8060408385031215610417575f80fd5b8235915060208301356006811061042c575f80fd5b809150509250929050565b6040810161044582856103a5565b826020830152939250505056fea2646970667358221220caf0f5739748ab21a5b6f71ff27e858151e2d5a12e194843254c60daf4306bdc64736f6c63430008150033",
  "immutableReferences": {},
  "source": "// SPDX-License-Identifier: MIT\npragma solidity ^0.8.21;\n\nimport \"@openzeppelin/contracts/access/Ownable.sol\";\n\n/// @title DealerRegistry - on-chain authorization status for dealers\ncontract DealerRegistry is Ownable {\n    enum Status { None, Authorized, UnderReview, Warned, Suspended, Blacklisted }\n\n    mapping(bytes32 => Status) public dealerStatus; // dealerId => status\n    address public dao;\n\n    event DealerStatusChanged(bytes32 indexed dealerId, Status status, uint256 timestamp);\n\n    constructor() Ownable(msg.sender) {}\n\n    modifier onlyDaoOrOwner() {\n        require(msg.sender == dao || msg.sender == owner(), \"not dao/owner\");\n        _;\n    }\n\n    function setDao(address _dao) external onlyOwner {\n        dao = _dao;\n    }\n\n    function registerDealer(bytes32 dealerId) external onlyOwner {\n        dealerStatus[dealerId] = Status.Authorized;\n        emit DealerStatusChanged(dealerId, Status.Authorized, block.timestamp);\n    }\n\n    function setStatus(bytes32 dealerId, Status s) external onlyDaoOrOwner {\n        dealerStatus[dealerId] = s;\n        emit DealerStatusChanged(dealerId, s, block.timestamp);\n    }\n}\n",
  "sourcePath": "/home/user-01/Stark/TechMahindra/TechMahindra/DAO-MT/contracts/DealerRegistry.sol",
  "compiler": {
    "name": "solc",
    "version": "0.8.21+commit.d9974bed.Emscripten.clang"
  },
  "schemaVersion": "3.4.16",
  "updatedAt": "2026-06-26T06:19:28.972Z",
  "networkType": "ethereum",
  "devdoc": {
    "errors": {
      "OwnableInvalidOwner(address)": [
        {
          "details": "The owner is not a valid owner account. (eg. `address(0)`)"
        }
      ],
      "OwnableUnauthorizedAccount(address)": [
        {
          "details": "The caller account is not authorized to perform an operation."
        }
      ]
    },
    "kind": "dev",
    "methods": {
      "owner()": {
        "details": "Returns the address of the current owner."
      },
      "renounceOwnership()": {
        "details": "Leaves the contract without owner. It will not be possible to call `onlyOwner` functions. Can only be called by the current owner. NOTE: Renouncing ownership will leave the contract without an owner, thereby disabling any functionality that is only available to the owner."
      },
      "transferOwnership(address)": {
        "details": "Transfers ownership of the contract to a new account (`newOwner`). Can only be called by the current owner."
      }
    },
    "title": "DealerRegistry - on-chain authorization status for dealers",
    "version": 1
  },
  "userdoc": {
    "kind": "user",
    "methods": {},
    "version": 1
  }
}