{
  "contractName": "GovernanceDAO",
  "abi": [
    {
      "inputs": [
        {
          "internalType": "address",
          "name": "_registry",
          "type": "address"
        }
      ],
      "stateMutability": "nonpayable",
      "type": "constructor"
    },
    {
      "anonymous": false,
      "inputs": [
        {
          "indexed": true,
          "internalType": "uint256",
          "name": "id",
          "type": "uint256"
        },
        {
          "indexed": true,
          "internalType": "bytes32",
          "name": "dealerId",
          "type": "bytes32"
        },
        {
          "indexed": false,
          "internalType": "uint8",
          "name": "newStatus",
          "type": "uint8"
        }
      ],
      "name": "ProposalExecuted",
      "type": "event"
    },
    {
      "anonymous": false,
      "inputs": [
        {
          "indexed": true,
          "internalType": "uint256",
          "name": "id",
          "type": "uint256"
        },
        {
          "indexed": false,
          "internalType": "uint8",
          "name": "status",
          "type": "uint8"
        }
      ],
      "name": "ProposalFinalized",
      "type": "event"
    },
    {
      "anonymous": false,
      "inputs": [
        {
          "indexed": true,
          "internalType": "uint256",
          "name": "id",
          "type": "uint256"
        },
        {
          "indexed": true,
          "internalType": "bytes32",
          "name": "dealerId",
          "type": "bytes32"
        },
        {
          "indexed": false,
          "internalType": "uint8",
          "name": "action",
          "type": "uint8"
        },
        {
          "indexed": false,
          "internalType": "uint256",
          "name": "quorum",
          "type": "uint256"
        }
      ],
      "name": "ProposalOpened",
      "type": "event"
    },
    {
      "anonymous": false,
      "inputs": [
        {
          "indexed": true,
          "internalType": "uint256",
          "name": "id",
          "type": "uint256"
        },
        {
          "indexed": true,
          "internalType": "address",
          "name": "voter",
          "type": "address"
        },
        {
          "indexed": false,
          "internalType": "bool",
          "name": "support",
          "type": "bool"
        },
        {
          "indexed": false,
          "internalType": "uint256",
          "name": "forVotes",
          "type": "uint256"
        },
        {
          "indexed": false,
          "internalType": "uint256",
          "name": "againstVotes",
          "type": "uint256"
        }
      ],
      "name": "Voted",
      "type": "event"
    },
    {
      "inputs": [],
      "name": "proposalCount",
      "outputs": [
        {
          "internalType": "uint256",
          "name": "",
          "type": "uint256"
        }
      ],
      "stateMutability": "view",
      "type": "function",
      "constant": true
    },
    {
      "inputs": [],
      "name": "registry",
      "outputs": [
        {
          "internalType": "contract IDealerRegistry",
          "name": "",
          "type": "address"
        }
      ],
      "stateMutability": "view",
      "type": "function",
      "constant": true
    },
    {
      "inputs": [
        {
          "internalType": "bytes32",
          "name": "dealerId",
          "type": "bytes32"
        },
        {
          "internalType": "enum GovernanceDAO.Action",
          "name": "action",
          "type": "uint8"
        },
        {
          "internalType": "uint256",
          "name": "quorum",
          "type": "uint256"
        }
      ],
      "name": "openProposal",
      "outputs": [
        {
          "internalType": "uint256",
          "name": "id",
          "type": "uint256"
        }
      ],
      "stateMutability": "nonpayable",
      "type": "function"
    },
    {
      "inputs": [
        {
          "internalType": "uint256",
          "name": "id",
          "type": "uint256"
        },
        {
          "internalType": "bool",
          "name": "support",
          "type": "bool"
        }
      ],
      "name": "vote",
      "outputs": [],
      "stateMutability": "nonpayable",
      "type": "function"
    },
    {
      "inputs": [
        {
          "internalType": "uint256",
          "name": "id",
          "type": "uint256"
        }
      ],
      "name": "finalize",
      "outputs": [],
      "stateMutability": "nonpayable",
      "type": "function"
    },
    {
      "inputs": [
        {
          "internalType": "uint256",
          "name": "id",
          "type": "uint256"
        }
      ],
      "name": "executeProposal",
      "outputs": [],
      "stateMutability": "nonpayable",
      "type": "function"
    },
    {
      "inputs": [
        {
          "internalType": "uint256",
          "name": "id",
          "type": "uint256"
        },
        {
          "internalType": "address",
          "name": "voter",
          "type": "address"
        }
      ],
      "name": "hasVoted",
      "outputs": [
        {
          "internalType": "bool",
          "name": "",
          "type": "bool"
        }
      ],
      "stateMutability": "view",
      "type": "function",
      "constant": true
    },
    {
      "inputs": [
        {
          "internalType": "uint256",
          "name": "id",
          "type": "uint256"
        }
      ],
      "name": "getProposal",
      "outputs": [
        {
          "internalType": "bytes32",
          "name": "dealerId",
          "type": "bytes32"
        },
        {
          "internalType": "uint8",
          "name": "action",
          "type": "uint8"
        },
        {
          "internalType": "uint256",
          "name": "forVotes",
          "type": "uint256"
        },
        {
          "internalType": "uint256",
          "name": "againstVotes",
          "type": "uint256"
        },
        {
          "internalType": "uint256",
          "name": "quorum",
          "type": "uint256"
        },
        {
          "internalType": "uint8",
          "name": "status",
          "type": "uint8"
        }
      ],
      "stateMutability": "view",
      "type": "function",
      "constant": true
    }
  ],
  "bytecode": "0x608060405234801561000f575f80fd5b5060405161093338038061093383398101604081905261002e91610052565b5f80546001600160a01b0319166001600160a01b039290921691909117905561007f565b5f60208284031215610062575f80fd5b81516001600160a01b0381168114610078575f80fd5b9392505050565b6108a78061008c5f395ff3fe608060405234801561000f575f80fd5b5060043610610085575f3560e01c80637b103999116100585780637b10399914610123578063c7f758a81461014d578063c9d27afe14610192578063da35c664146101a5575f80fd5b806305261aea146100895780630d61b5191461009e5780632aa7a7ff146100b157806343859632146100d7575b5f80fd5b61009c610097366004610735565b6101ae565b005b61009c6100ac366004610735565b6102d5565b6100c46100bf36600461074c565b610494565b6040519081526020015b60405180910390f35b6101136100e5366004610784565b5f8281526002602090815260408083206001600160a01b038516845260060190915290205460ff1692915050565b60405190151581526020016100ce565b5f54610135906001600160a01b031681565b6040516001600160a01b0390911681526020016100ce565b61016061015b366004610735565b610550565b6040805196875260ff9586166020880152860193909352606085019190915260808401521660a082015260c0016100ce565b61009c6101a03660046107bd565b6105c5565b6100c460015481565b60015481106101d85760405162461bcd60e51b81526004016101cf906107e4565b60405180910390fd5b5f81815260026020526040812090600582015460ff1660038111156101ff576101ff610809565b146102375760405162461bcd60e51b81526020600482015260086024820152673737ba1037b832b760c11b60448201526064016101cf565b8060040154816002015410158015610256575080600301548160020154115b1561026f5760058101805460ff1916600117905561027f565b60058101805460ff191660021790555b600581015482907f34a42c4ce0a88d16ad098de6406057747139a2a3dd8dd8616ee7bbabcecb768e9060ff1660038111156102bc576102bc610809565b60405160ff909116815260200160405180910390a25050565b60015481106102f65760405162461bcd60e51b81526004016101cf906107e4565b5f8181526002602052604090206001600582015460ff16600381111561031e5761031e610809565b146103585760405162461bcd60e51b815260206004820152600a6024820152691b9bdd081c185cdcd95960b21b60448201526064016101cf565b5f80600183015460ff16600381111561037357610373610809565b03610380575060036103d3565b60018083015460ff16600381111561039a5761039a610809565b036103a7575060046103d3565b6002600183015460ff1660038111156103c2576103c2610809565b036103cf575060056103d3565b5060015b5f5482546040516346f32a5d60e11b81526001600160a01b0390921691638de654ba9161040491859060040161081d565b5f604051808303815f87803b15801561041b575f80fd5b505af115801561042d573d5f803e3d5ffd5b505050506005828101805460ff1916600317905582549084907f897aac68e596eb310a593f90b4c66445d1d1527bd1ad38787f2de84fe920d89390849081111561047957610479610809565b60405160ff90911681526020015b60405180910390a3505050565b600180545f91826104a48361084d565b909155505f81815260026020526040902085815560018082018054939450919286929160ff19909116908360038111156104e0576104e0610809565b02179055506004810183905560058101805460ff1916905584827f852f3d62121d1fbff060ee69d2de61c55cb7577efcc3b264c2d06916806c598586600381111561052d5761052d610809565b6040805160ff9092168252602082018890520160405180910390a3509392505050565b5f8181526002602052604081208054600182015483928392839283928392909160ff16600381111561058457610584610809565b6002830154600380850154600486015460058701549192909160ff16908111156105b0576105b0610809565b949d939c50919a509850965090945092505050565b60015482106105e65760405162461bcd60e51b81526004016101cf906107e4565b5f82815260026020526040812090600582015460ff16600381111561060d5761060d610809565b146106455760405162461bcd60e51b81526020600482015260086024820152673737ba1037b832b760c11b60448201526064016101cf565b335f90815260068201602052604090205460ff16156106965760405162461bcd60e51b815260206004820152600d60248201526c185b1c9958591e481d9bdd1959609a1b60448201526064016101cf565b335f9081526006820160205260409020805460ff1916600117905581156106d257600281018054905f6106c88361084d565b91905055506106e9565b600381018054905f6106e38361084d565b91905055505b600281015460038201546040805185151581526020810193909352820152339084907f72977ad883f7d5821678747ec7baf0a5afb5fcb5da86f061dbd347b408edef4490606001610487565b5f60208284031215610745575f80fd5b5035919050565b5f805f6060848603121561075e575f80fd5b83359250602084013560048110610773575f80fd5b929592945050506040919091013590565b5f8060408385031215610795575f80fd5b8235915060208301356001600160a01b03811681146107b2575f80fd5b809150509250929050565b5f80604083850312156107ce575f80fd5b82359150602083013580151581146107b2575f80fd5b6020808252600b908201526a1b9bc81c1c9bdc1bdcd85b60aa1b604082015260600190565b634e487b7160e01b5f52602160045260245ffd5b828152604081016006831061084057634e487b7160e01b5f52602160045260245ffd5b8260208301529392505050565b5f6001820161086a57634e487b7160e01b5f52601160045260245ffd5b506001019056fea26469706673582212204ed190d6f8b37957dffb477c09e65843a5bcec140776ad2fe539e2b43fe887fe64736f6c63430008150033",
  "immutableReferences": {},
  "source": "// SPDX-License-Identifier: MIT\npragma solidity ^0.8.21;\n\ninterface IDealerRegistry {\n    // NOTE: enum order MUST match DealerRegistry.Status\n    enum Status { None, Authorized, UnderReview, Warned, Suspended, Blacklisted }\n    function setStatus(bytes32 dealerId, Status s) external;\n}\n\n/// @title GovernanceDAO - propose/vote/finalize/execute enforcement on dealers\ncontract GovernanceDAO {\n    enum Action { Warn, Suspend, Blacklist, Reinstate }\n    enum ProposalStatus { Open, Passed, Failed, Executed }\n\n    struct Proposal {\n        bytes32 dealerId;\n        Action action;\n        uint256 forVotes;\n        uint256 againstVotes;\n        uint256 quorum;\n        ProposalStatus status;\n        mapping(address => bool) voted;\n    }\n\n    IDealerRegistry public registry;\n    uint256 public proposalCount;\n    mapping(uint256 => Proposal) private proposals;\n\n    event ProposalOpened(uint256 indexed id, bytes32 indexed dealerId, uint8 action, uint256 quorum);\n    event Voted(uint256 indexed id, address indexed voter, bool support, uint256 forVotes, uint256 againstVotes);\n    event ProposalFinalized(uint256 indexed id, uint8 status);\n    event ProposalExecuted(uint256 indexed id, bytes32 indexed dealerId, uint8 newStatus);\n\n    constructor(address _registry) {\n        registry = IDealerRegistry(_registry);\n    }\n\n    function openProposal(bytes32 dealerId, Action action, uint256 quorum) external returns (uint256 id) {\n        id = proposalCount++;\n        Proposal storage p = proposals[id];\n        p.dealerId = dealerId;\n        p.action = action;\n        p.quorum = quorum;\n        p.status = ProposalStatus.Open;\n        emit ProposalOpened(id, dealerId, uint8(action), quorum);\n    }\n\n    function vote(uint256 id, bool support) external {\n        require(id < proposalCount, \"no proposal\");\n        Proposal storage p = proposals[id];\n        require(p.status == ProposalStatus.Open, \"not open\");\n        require(!p.voted[msg.sender], \"already voted\");\n        p.voted[msg.sender] = true;\n        if (support) p.forVotes++;\n        else p.againstVotes++;\n        emit Voted(id, msg.sender, support, p.forVotes, p.againstVotes);\n    }\n\n    function finalize(uint256 id) external {\n        require(id < proposalCount, \"no proposal\");\n        Proposal storage p = proposals[id];\n        require(p.status == ProposalStatus.Open, \"not open\");\n        if (p.forVotes >= p.quorum && p.forVotes > p.againstVotes) {\n            p.status = ProposalStatus.Passed;\n        } else {\n            p.status = ProposalStatus.Failed;\n        }\n        emit ProposalFinalized(id, uint8(p.status));\n    }\n\n    function executeProposal(uint256 id) external {\n        require(id < proposalCount, \"no proposal\");\n        Proposal storage p = proposals[id];\n        require(p.status == ProposalStatus.Passed, \"not passed\");\n\n        IDealerRegistry.Status newStatus;\n        if (p.action == Action.Warn) newStatus = IDealerRegistry.Status.Warned;\n        else if (p.action == Action.Suspend) newStatus = IDealerRegistry.Status.Suspended;\n        else if (p.action == Action.Blacklist) newStatus = IDealerRegistry.Status.Blacklisted;\n        else newStatus = IDealerRegistry.Status.Authorized; // Reinstate\n\n        registry.setStatus(p.dealerId, newStatus);\n        p.status = ProposalStatus.Executed;\n        emit ProposalExecuted(id, p.dealerId, uint8(newStatus));\n    }\n\n    function hasVoted(uint256 id, address voter) external view returns (bool) {\n        return proposals[id].voted[voter];\n    }\n\n    /// @dev struct holds a mapping, so expose fields via an explicit view\n    function getProposal(uint256 id)\n        external\n        view\n        returns (\n            bytes32 dealerId,\n            uint8 action,\n            uint256 forVotes,\n            uint256 againstVotes,\n            uint256 quorum,\n            uint8 status\n        )\n    {\n        Proposal storage p = proposals[id];\n        return (p.dealerId, uint8(p.action), p.forVotes, p.againstVotes, p.quorum, uint8(p.status));\n    }\n}\n",
  "sourcePath": "/home/user-01/Stark/TechMahindra/TechMahindra/DAO-MT/contracts/GovernanceDAO.sol",
  "compiler": {
    "name": "solc",
    "version": "0.8.21+commit.d9974bed.Emscripten.clang"
  },
  "schemaVersion": "3.4.16",
  "updatedAt": "2026-06-26T06:19:28.975Z",
  "networkType": "ethereum",
  "devdoc": {
    "kind": "dev",
    "methods": {
      "getProposal(uint256)": {
        "details": "struct holds a mapping, so expose fields via an explicit view"
      }
    },
    "title": "GovernanceDAO - propose/vote/finalize/execute enforcement on dealers",
    "version": 1
  },
  "userdoc": {
    "kind": "user",
    "methods": {},
    "version": 1
  }
}