{
  "contractName": "ProductRegistry",
  "abi": [
    {
      "anonymous": false,
      "inputs": [
        {
          "indexed": false,
          "internalType": "string",
          "name": "batchId",
          "type": "string"
        },
        {
          "indexed": false,
          "internalType": "bytes32",
          "name": "merkleRoot",
          "type": "bytes32"
        },
        {
          "indexed": false,
          "internalType": "uint256",
          "name": "totalProducts",
          "type": "uint256"
        }
      ],
      "name": "BatchRegistered",
      "type": "event"
    },
    {
      "inputs": [
        {
          "internalType": "string",
          "name": "batchId",
          "type": "string"
        },
        {
          "internalType": "bytes32",
          "name": "merkleRoot",
          "type": "bytes32"
        },
        {
          "internalType": "uint256",
          "name": "totalProducts",
          "type": "uint256"
        }
      ],
      "name": "registerBatch",
      "outputs": [],
      "stateMutability": "nonpayable",
      "type": "function"
    },
    {
      "inputs": [
        {
          "internalType": "string",
          "name": "batchId",
          "type": "string"
        }
      ],
      "name": "getRoot",
      "outputs": [
        {
          "internalType": "bytes32",
          "name": "",
          "type": "bytes32"
        }
      ],
      "stateMutability": "view",
      "type": "function"
    },
    {
      "inputs": [
        {
          "internalType": "string",
          "name": "batchId",
          "type": "string"
        },
        {
          "internalType": "bytes32[]",
          "name": "proof",
          "type": "bytes32[]"
        },
        {
          "internalType": "bytes32",
          "name": "leaf",
          "type": "bytes32"
        }
      ],
      "name": "verifyProduct",
      "outputs": [
        {
          "internalType": "bool",
          "name": "",
          "type": "bool"
        }
      ],
      "stateMutability": "view",
      "type": "function"
    }
  ],
  "bytecode": "0x608060405234801561000f575f80fd5b5061060a8061001d5f395ff3fe608060405234801561000f575f80fd5b506004361061003f575f3560e01c806322217224146100435780633feb0a1f14610069578063f0af32671461008c575b5f80fd5b61005661005136600461042a565b6100a1565b6040519081526020015b60405180910390f35b61007c610077366004610469565b610133565b6040519015158152602001610060565b61009f61009a366004610502565b6101fd565b005b5f8083836040516100b392919061054f565b9081526040519081900360200190206003015460ff1661010a5760405162461bcd60e51b815260206004820152600d60248201526c0eadcd6dcdeeedc40c4c2e8c6d609b1b60448201526064015b60405180910390fd5b5f838360405161011b92919061054f565b90815260405190819003602001902054905092915050565b5f80868660405161014592919061054f565b9081526040519081900360200190206003015460ff166101975760405162461bcd60e51b815260206004820152600d60248201526c0eadcd6dcdeeedc40c4c2e8c6d609b1b6044820152606401610101565b6101f38484808060200260200160405190810160405280939291908181526020018383602002808284375f9201829052506040519093506101dd92508b91508a9061054f565b9081526040519081900360200190205484610355565b9695505050505050565b5f848460405161020e92919061054f565b9081526040519081900360200190206003015460ff16156102685760405162461bcd60e51b8152602060048201526014602482015273626174636820616c72656164792065786973747360601b6044820152606401610101565b816102a25760405162461bcd60e51b815260206004820152600a602482015269195b5c1d1e481c9bdbdd60b21b6044820152606401610101565b604080516080810182528381526020810183905242818301526001606082015290515f906102d3908790879061054f565b9081526040805160209281900383018120845181559284015160018401559083015160028301556060909201516003909101805460ff19169115159190911790557f53ab2a5f65184f86f8bb2110e18b132811f7e4cdebe70d2e8cd7139537bd93369061034790869086908690869061055e565b60405180910390a150505050565b5f82610361858461036a565b14949350505050565b5f81815b84518110156103ae5761039a8286838151811061038d5761038d61059c565b60200260200101516103b6565b9150806103a6816105b0565b91505061036e565b509392505050565b5f8183106103d0575f8281526020849052604090206103de565b5f8381526020839052604090205b9392505050565b5f8083601f8401126103f5575f80fd5b50813567ffffffffffffffff81111561040c575f80fd5b602083019150836020828501011115610423575f80fd5b9250929050565b5f806020838503121561043b575f80fd5b823567ffffffffffffffff811115610451575f80fd5b61045d858286016103e5565b90969095509350505050565b5f805f805f6060868803121561047d575f80fd5b853567ffffffffffffffff80821115610494575f80fd5b6104a089838a016103e5565b909750955060208801359150808211156104b8575f80fd5b818801915088601f8301126104cb575f80fd5b8135818111156104d9575f80fd5b8960208260051b85010111156104ed575f80fd5b96999598505060200195604001359392505050565b5f805f8060608587031215610515575f80fd5b843567ffffffffffffffff81111561052b575f80fd5b610537878288016103e5565b90989097506020870135966040013595509350505050565b818382375f9101908152919050565b60608152836060820152838560808301375f608085830101525f6080601f19601f870116830101905083602083015282604083015295945050505050565b634e487b7160e01b5f52603260045260245ffd5b5f600182016105cd57634e487b7160e01b5f52601160045260245ffd5b506001019056fea26469706673582212206c1a3370e568e9e4504a0118eebfa2c5625fb062d5aed3c56acbf93f2e9f04fd64736f6c63430008150033",
  "immutableReferences": {},
  "source": "// SPDX-License-Identifier: MIT\npragma solidity ^0.8.20;\n\n// OpenZeppelin's audited Merkle verification library. This is the SAME climb\n// you did by hand in Step 3 (hash leaf with each sibling, sorted, up to root)\n// — but written by experts, gas-optimized, and security-audited.\nimport \"@openzeppelin/contracts/utils/cryptography/MerkleProof.sol\";\n\n/**\n * @title ProductRegistry\n * @notice Stores ONLY the 32-byte Merkle root of each batch on-chain, and\n *         verifies individual products against it using a Merkle proof.\n *\n *         This is the on-chain twin of our JavaScript scripts:\n *           - registerBatch() stores the root (like Step 2's output)\n *           - verifyProduct() checks a leaf + proof (like Step 3 / Step 4)\n */\ncontract ProductRegistry {\n    // One record per batch. Note we store the ROOT, never the products.\n    struct Batch {\n        bytes32 merkleRoot;    // the 32-byte seal over the whole batch\n        uint256 totalProducts; // how many products are under this root\n        uint256 createdAt;     // block timestamp when registered\n        bool exists;           // lets us tell \"registered\" from \"empty\"\n    }\n\n    // batchId (e.g. \"BATCH-001\") => its Batch record.\n    mapping(string => Batch) private batches;\n\n    // Emitted when a manufacturer commits a batch root on-chain.\n    event BatchRegistered(string batchId, bytes32 merkleRoot, uint256 totalProducts);\n\n    /**\n     * Store a batch's Merkle root. In a real system you'd guard this so only\n     * the manufacturer can call it (OpenZeppelin's Ownable / AccessControl) —\n     * we'll keep it open here to stay focused on the Merkle part.\n     */\n    function registerBatch(\n        string calldata batchId,\n        bytes32 merkleRoot,\n        uint256 totalProducts\n    ) external {\n        require(!batches[batchId].exists, \"batch already exists\");\n        require(merkleRoot != bytes32(0), \"empty root\");\n\n        batches[batchId] = Batch({\n            merkleRoot: merkleRoot,\n            totalProducts: totalProducts,\n            createdAt: block.timestamp,\n            exists: true\n        });\n\n        emit BatchRegistered(batchId, merkleRoot, totalProducts);\n    }\n\n    /// Read back a stored root (handy for the UI / sanity checks).\n    function getRoot(string calldata batchId) external view returns (bytes32) {\n        require(batches[batchId].exists, \"unknown batch\");\n        return batches[batchId].merkleRoot;\n    }\n\n    /**\n     * THE HEART OF THE CONTRACT.\n     * Given a product's leaf + its proof, rebuild the root and compare it to\n     * the stored root. Returns true (genuine) or false (fake/tampered).\n     *\n     * `view` = read-only, costs no gas when called off-chain. Identical inputs\n     * and output to tree.verify(proof, leaf, root) from Steps 3 & 4.\n     */\n    function verifyProduct(\n        string calldata batchId,\n        bytes32[] calldata proof,\n        bytes32 leaf\n    ) external view returns (bool) {\n        require(batches[batchId].exists, \"unknown batch\");\n        return MerkleProof.verify(proof, batches[batchId].merkleRoot, leaf);\n    }\n}\n",
  "sourcePath": "/home/user-01/Stark/TechMahindra/TechMahindra/MT/merkle-poc/contracts/ProductRegistry.sol",
  "compiler": {
    "name": "solc",
    "version": "0.8.21+commit.d9974bed.Emscripten.clang"
  },
  "schemaVersion": "3.4.16",
  "updatedAt": "2026-06-30T10:03:46.566Z",
  "devdoc": {
    "kind": "dev",
    "methods": {},
    "title": "ProductRegistry",
    "version": 1
  },
  "userdoc": {
    "kind": "user",
    "methods": {
      "getRoot(string)": {
        "notice": "Read back a stored root (handy for the UI / sanity checks)."
      },
      "registerBatch(string,bytes32,uint256)": {
        "notice": "Store a batch's Merkle root. In a real system you'd guard this so only the manufacturer can call it (OpenZeppelin's Ownable / AccessControl) — we'll keep it open here to stay focused on the Merkle part."
      },
      "verifyProduct(string,bytes32[],bytes32)": {
        "notice": "THE HEART OF THE CONTRACT. Given a product's leaf + its proof, rebuild the root and compare it to the stored root. Returns true (genuine) or false (fake/tampered). `view` = read-only, costs no gas when called off-chain. Identical inputs and output to tree.verify(proof, leaf, root) from Steps 3 & 4."
      }
    },
    "notice": "Stores ONLY the 32-byte Merkle root of each batch on-chain, and         verifies individual products against it using a Merkle proof.         This is the on-chain twin of our JavaScript scripts:           - registerBatch() stores the root (like Step 2's output)           - verifyProduct() checks a leaf + proof (like Step 3 / Step 4)",
    "version": 1
  }
}